:020000022000DC
:10700000F4FF0120B5720200DD720200DF7202009F
:10701000E1720200E3720200E5720200000000006B
:10702000000000000000000000000000E772020005
:10703000E972020000000000EB720200ED72020033
:1070400079A90200EF72020021B40200FD170300CB
:10705000B1150300EF72020021AF02009109030095
:10706000EF720200EF720200EF720200EF72020094
:10707000EF720200F9740300EF720200EF72020077
:10708000991F0300C1920200EF720200EF7202002A
:10709000EF720200EF72020049060300EF72020075
:1070A000EF720200EF720200EF720200EF72020054
:1070B000EF720200EF72020000000000000000000A
:1070C000EF720200EF720200EF72020095B402004C
:1070D000EF720200EF720200EF720200EF72020024
:1070E000EF7202000000000000000000000000003D
:1070F00000000000EF72020000000000EF720200CA
:10710000000000000000000000000000000000007F
:10711000000000000000000000000000000000006F
:10712000000000000000000000000000000000005F
:10713000000000000000000000000000000000004F
:10714000000000000000000000000000000000003F
:10715000000000000000000000000000000000002F
:10716000000000000000000000000000000000001F
:10717000000000000000000000000000000000000F
:1071800000000000000000000000000000000000FF
:1071900000000000000000000000000000000000EF
:1071A00000000000000000000000000000000000DF
:1071B00000000000000000000000000000000000CF
:1071C00000000000000000000000000000000000BF
:1071D00000000000000000000000000000000000AF
:1071E000000000000000000000000000000000009F
:1071F000000000000000000000000000000000008F
:1072000010B5054C237833B9044B13B10448AFF3E0
:1072100000800123237010BD902D0020000000008D
:107220008492050008B5034B1BB103490348AFF333
:10723000008008BD00000000942D0020849205000D
:10724000154B002B08BF134B9D46A3F5803A002138
:107250008B460F461348144A121A27F0E5FA0F4BD3
:10726000002B00D098470E4B002B00D098470020F1
:10727000002104000D000D48002802D00C48AFF397
:10728000008027F091FA2000290006F0D3FB27F0B8
:1072900077FA00BF00000800F4FF012000000000A2
:1072A00000000000902D0020389A0120000000000E
:1072B000000000000649074A074B9B1A03DD043B08
:1072C000C858D050FBDC03F035F8FFF7B9FF0000D9
:1072D00068940500F02B0020902D0020FEE7FEE7CB
:1072E000FEE7FEE7FEE7FEE7FEE7FEE7FEE7FEE776
:1072F000704700BF00B583B0044B0093044A4FF4BD
:10730000806300F035F803B05DF804FB15730200EC
:10731000B02D002002B32DE9F843114B114E8846E1
:10732000144643F0010903270025224608EB050116
:10733000002007F075FB03461D444FF47A40E41A21
:1073400023B9337833B1C847013F06D001233370E6
:10735000002CEAD1BDE8F88370473770BDE8F883A8
:1073600060FE0400AC2D0020704700BF07F036BC63
:10737000F0B595B000241D460E460846174602F0AB
:10738000B5FD304623460822099505A91A9D0897A0
:107390000D950A948DF82C400C9402F00BFE9DF88C
:1073A00014308DF81140DDE9061003F00302012AC4
:1073B000CDE9020128D0022A04D0304602F09AFD1D
:1073C00015B0F0BDBDF81650C3F3C2038DF81030F0
:1073D000C5F389150827082D2C4628BF08243B46ED
:1073E00022460EA9304602F0E5FD2D1B214608ABD2
:1073F00002AA0EA8274401F0CFF8002DEBD13046A9
:1074000002F078FD15B0F0BDBDF81470059DC7F30E
:107410008312C3F3C2040EA93046920008238DF8EC
:107420001040C7F3831702F0C5FDC5F3952508ABDF
:107430003A4628460EA9009302AB01F035F83046D3
:1074400002F058FD15B0F0BD08B5FFF78FFF0448F6
:10745000042100F0A7FF034B01225A7108BD00BFB1
:1074600050940500F02B0020064B074810B5002271
:107470001A7002F0EFFC044610B9044802F072FEE4
:10748000204610BD80320020249305009CFE04009D
:1074900099B10E4B0E495B1ADB0815D030B40022AF
:1074A0000C4D02E0013293420BD035F82240844269
:1074B000F8D151F8320030BC7047054951F830001E
:1074C0007047002030BC7047184670475094050044
:1074D000409305008C2D0020094B013903EBC000BF
:1074E00003290BD8DFE801F00402080604207047E6
:1074F000022070474079704700797047002070473C
:10750000409305002DE9F0438C4CD4E901239A42C5
:1075100085B060D00023C4F81834BFF34F8FA5683E
:10752000EAB2D31C04EB830114F82330580718D5B2
:1075300066680B7803F00303012B42D0022B03D1C2
:107540004B88023505EB9315EAB2D4F81804D31C26
:1075500004EB830128B9AE4239D914F823305B0714
:10756000E7D404EB82026B1CD2680192DBB204EB1D
:10757000830302F00302DB680293022A05F102068C
:107580002DD0012A00F08D80D4F810543DB12B6825
:1075900028469B689847EB681D68002DF7D168481E
:1075A000684B6949C01AC008000440F0020000F0AE
:1075B000D1F8D4E90130C01A18BF012005B0BDE8E8
:1075C000F0830B880235C3F383131D44BCE7A66028
:1075D00005B0BDE8F083002005B0BDE8F083BDF83C
:1075E00006305A48C3F389184546502D28BF502508
:1075F00065F38F1305F10801ADF8063002F02CFC9D
:1076000007460028C0D002F071FC002301A908221F
:10761000384602F09BFCF343DBB20133B5EB830F3A
:107620004FEA8309F1B277D9A5EB0905033104EBE1
:10763000810108234A463846EDB202F087FC4449EE
:107640002A4609F10803384602F080FC08F10308D5
:1076500006EB9806D4F81834002B6AD1D4F81054ED
:1076600065B1EB685A7928463946002A5DD02B6807
:107670001B689847EB681D68002DF2D1384602F070
:1076800039FC00230DF103008DF8033001F084FC78
:10769000D4F8183403B9A6609DF8030001F0A2FCE9
:1076A00087E7BDF804302948C3F38312062A28BFB0
:1076B0000622911C62F389138900ADF8043002F0B0
:1076C000CBFB074600283FF45FAF02F00FFC00231E
:1076D000082201A9384602F039FCBDF8043013F441
:1076E000707FB7D06FF00108A8EB05080825F1B24C
:1076F00003312B46042204EB8101384602F026FCBC
:10770000BDF80420013608EB0603C2F383129A4247
:1077100005F10405EBD89DE703312A4604EB81010E
:107720000823384602F012FC90E71D68002D98D11E
:10773000A4E7384602F0DEFB3BE700BF80320020C2
:10774000909305004093050084FE040024930500F7
:107750008C3200202DE9F04F5E4C87B000230646A6
:107760000DF10B008DF80B300F4601F015FCD4E93C
:10777000015303F580735B1B012B7DD804F21C4879
:1077800004F5836A04F214491AE0BDF80E30C3F31D
:1077900089130333090C0BEB930B4846019101F05D
:1077A00041FF0199002839D04046C4F808B001F0E3
:1077B000FDFED4E9013202F58072D21A012A5CD8AA
:1077C0000121404601F0F2FE504601F01BFF484601
:1077D00001F018FFA368DAB2D11C04EB810014F8A1
:1077E000211001F0040C490728D404EB8202591C33
:1077F000D2680392C9B204EB810102F00302012AAC
:10780000C96803F1020B30D0022ABED000214846DD
:10781000019101F007FF01990028C5D14046C6E754
:1078200043880EEB9313DAB2D11C04EB810014F8F9
:10783000211001F0040CBCF1000FD6D0017801F04A
:10784000030101290BD0022903F1020E02F1030109
:10785000E6D004EB8100BCF1000FEFD1C5E7028850
:107860000233C2F383121344DDE7BDF80C30C3F3D7
:107870008313090C9B4490E72B46DAB203320233A0
:1078800005219DF80B0044F82210636001F0AAFB6B
:107890000021114801F044FE80F31000F1006B1C40
:1078A00001F03801DBB2EDB204EB830341F00101DA
:1078B0000004033540EA164641EA8727DE6044F8B3
:1078C000257023781BB1FFF71DFE0028FBD107B000
:1078D000BDE8F08F803200209C3600202DE9F04F6B
:1078E000634C87B0002306460DF10B008DF80B307A
:1078F0000F46904601F050FBD4E9015303F5807325
:107900005B1B022B7FD804F21C4904F5836B04F245
:10791000144A1BE0BDF80E20C2F389120332090C91
:1079200003EB92035046CDE9003101F07BFE019953
:1079300000283AD0009BA360484601F037FED4E906
:10794000013202F58072D21A022A5DD8012148461E
:1079500001F02CFE584601F055FE504601F052FE53
:10796000A368DAB2D11C04EB810014F8211001F0F5
:10797000040C490729D404EB8202591CD2680392F3
:10798000C9B204EB810102F00302012AC96803F1C4
:10799000020331D0022ABDD000215046CDE900318A
:1079A00001F040FE01990028C4D14846C5E743884C
:1079B0000EEB9313DAB2D11C04EB810014F8211002
:1079C00001F0040CBCF1000FD5D0017801F00301E7
:1079D00001290BD0022903F1020E02F10301E6D0C6
:1079E00004EB8100BCF1000FEFD1C4E70288023341
:1079F000C2F383121344DDE7BDF80C20C2F38312F7
:107A0000090C13448EE72B46DAB2033203334521C7
:107A10009DF80B0044F82210636001F0E3FAAB1C00
:107A2000DBB204EB830300211248C3F80C8001F0A1
:107A300077FD80F31000F1006B1C01F03801DBB220
:107A4000EDB204EB830341F041010004033540EA49
:107A5000164641EA8727DE6044F8257023781BB17B
:107A6000FFF750FD0028FBD107B0BDE8F08F00BF45
:107A7000803200209C3600202DE9F04F684C89B000
:107A8000002506460DF113001F468DF81350884659
:107A9000039201F081FAD4E9015303F580735B1B73
:107AA000032B00F2828004F21C4904F5836B04F27C
:107AB000144A1BE0BDF81620C2F389120332090CE8
:107AC00003EB92035046CDE9013101F0ABFD029981
:107AD00000283BD0019BA360484601F067FDD4E934
:107AE000013202F58072D21A032A5FD8012148467A
:107AF00001F05CFD584601F085FD504601F082FD25
:107B0000A368DAB2D11C04EB810014F821C01CF088
:107B1000040F0CF0040128D104EB8202591CD26836
:107B20000592C9B204EB810102F00302012AC9687F
:107B300003F1020332D0022ABCD000215046CDE925
:107B4000013101F06FFD02990028C3D14846C4E716
:107B500043880EEB9313DAB2D11C04EB810014F8C6
:107B6000211001F004010029D6D090F800C00CF0DB
:107B7000030CBCF1010F0BD0BCF1020F03F1020E9C
:107B800002F1030CE4D004EB8C000029EDD1C3E733
:107B900002880233C2F383121344DCE7BDF81420D9
:107BA000C2F38312090C13448CE72B46DAB203327A
:107BB000043385219DF8130044F82210636001F01E
:107BC00011FAAA1CEB1CDBB2D2B204EB830C04EB5F
:107BD0008202039B1348D3600021CCF80C7001F0A3
:107BE0009FFC80F31000F1006B1C01F03801DBB248
:107BF000EDB204EB830341F081010004033540EA58
:107C0000164641EA8821DE6044F8251023781BB12E
:107C1000FFF778FC0028FBD109B0BDE8F08F00BF6A
:107C2000803200209C3600202DE9F04F6B4C89B04B
:107C3000002506460DF113001F468DF813508846A7
:107C4000039201F0A9F9D4E9015303F580735B1B9A
:107C5000042B00F2828004F21C4904F5836B04F2C9
:107C6000144A1BE0BDF81620C2F389120332090C36
:107C700003EB92035046CDE9013101F0D3FC0299A8
:107C800000283BD0019BA360484601F08FFCD4E95B
:107C9000013202F58072D21A042A5FD801214846C7
:107CA00001F084FC584601F0ADFC504601F0AAFCFE
:107CB000A368DAB2D11C04EB810014F821C01CF0D7
:107CC000040F0CF0040128D104EB8202591CD26885
:107CD0000592C9B204EB810102F00302012AC968CE
:107CE00003F1020332D0022ABCD000215046CDE974
:107CF000013101F097FC02990028C3D14846C4E73E
:107D000043880EEB9313DAB2D11C04EB810014F814
:107D1000211001F004010029D6D090F800C00CF029
:107D2000030CBCF1010F0BD0BCF1020F03F1020EEA
:107D300002F1030CE4D004EB8C000029EDD1C3E781
:107D400002880233C2F383121344DCE7BDF8142027
:107D5000C2F38312090C13448CE72B46DAB20332C8
:107D60000533C5219DF8130044F82210636001F02B
:107D700039F9A81CEA1C2B1DC0B2DBB204EB800051
:107D8000D2B204EB830C04EB8202039BC36000219C
:107D9000129B1348D760CCF80C3001F0C1FB80F384
:107DA0001000F1006B1C01F03801DBB2EDB204EB06
:107DB000830341F0C1010004033540EA164641EA5D
:107DC0008821DE6044F8251023781BB1FFF79AFB69
:107DD0000028FBD109B0BDE8F08F00BF8032002041
:107DE0009C3600202DE9F04F704C89B000250646E6
:107DF0000DF113001F468DF813508846039201F0D1
:107E0000CBF8D4E9015303F580735B1B052B00F21B
:107E1000828004F21C4904F5836B04F2144A1BE0CF
:107E2000BDF81620C2F389120332090C03EB92034A
:107E30005046CDE9011301F0F5FB019900283BD034
:107E4000029BA360484601F0B1FBD4E9013202F580
:107E50008072D21A052A5FD80121484601F0A6FB9C
:107E6000584601F0CFFB504601F0CCFBA368DAB2D4
:107E7000D11C04EB810014F821C01CF0040F0CF09D
:107E8000040128D104EB8202591CD2680592C9B2C0
:107E900004EB810102F00302012AC96803F1020325
:107EA00032D0022ABCD000215046CDE9011301F0A6
:107EB000B9FB01990028C3D14846C4E743880EEBBB
:107EC0009313DAB2D11C04EB810014F8211001F0F5
:107ED00004010029D6D090F800C00CF0030CBCF1CE
:107EE000010F0BD0BCF1020F03F1020E02F1030CE3
:107EF000E4D004EB8C000029EDD1C3E70288023303
:107F0000C2F383121344DCE7BDF81420C2F38312DA
:107F1000090C13448CE72B46DAB20332063340F2E5
:107F200005119DF8130044F82210636001F05AF81F
:107F3000A91C05F1030C2A1DC9B25FFA8CFC6B1D4C
:107F400004EB810104EB8C0CD2B20398C86004EB03
:107F50008202DBB2CCF80C7004EB8303129FD76073
:107F60000021139A1248DA6001F0DAFA80F3100067
:107F7000F1006B1C01F0380141F48071DBB2EDB20D
:107F800004EB830341F001010004033540EA164687
:107F900041EA8821DE6044F8251023781BB1FFF701
:107FA000B1FA0028FBD109B0BDE8F08F8032002083
:107FB0009C3600202DE9F04F8FB01E46CDE90926F2
:107FC000764C189D0B951746199A0C9200231A9A15
:107FD0008DF8173080460DF1170003910D9200F0D7
:107FE000DBFFD4E9015303F580735B1B062B00F222
:107FF000828004F21C4904F5836B04F2144A1BE0EE
:10800000BDF81A20C2F389120332090C03EB920364
:108010005046CDE9013101F005FB029900283BD023
:10802000019BA360484601F0C1FAD4E9013202F590
:108030008072D21A062A5FD80121484601F0B6FAAA
:10804000584601F0DFFA504601F0DCFAA368DAB2D4
:10805000D11C04EB810014F821C01CF0040F0CF0BB
:10806000040128D104EB8202591CD2680692C9B2DD
:1080700004EB810102F00302012AC96803F1020343
:1080800032D0022ABCD000215046CDE9013101F0A6
:10809000C9FA02990028C3D14846C4E743880EEBC9
:1080A0009313DAB2D11C04EB810014F8211001F013
:1080B00004010029D6D090F800C00CF0030CBCF1EC
:1080C000010F0BD0BCF1020F03F1020E02F1030C01
:1080D000E4D004EB8C000029EDD1C3E70288023321
:1080E000C2F383121344DCE7BDF81820C2F38312F5
:1080F000090C13448CE72B46DAB20332073340F203
:1081000045119DF8170044F82210636000F06AFFE3
:10811000A91CE81C05F1040CC9B2C0B26A1D04EB2D
:10812000810104EB80005FFA8CFCAB1D04EB8C0C2E
:10813000D2B2CF6004EB8202C660DBB2189ECCF8EC
:108140000C6004EB8303199ED66000211A9A144830
:10815000DA6001F0E5F980F310004FEAC8016B1C0A
:1081600001F03801039A41F4A071DBB2EDB204EBE7
:10817000830341F001010004033540EA184041EA5D
:108180008221D86044F8251023781BB1FFF7BAF993
:108190000028FBD10FB0BDE8F08F00BF8032002077
:1081A0009C3600202DE9F04F8FB01E46CDE9082601
:1081B0001746199A0B92794C1A9A189D0C92002323
:1081C0001B9A0A9580460DF113008DF81330039128
:1081D0000D9200F0E1FED4E9015303F580735B1BBF
:1081E000072B00F2828004F21C4904F5836B04F231
:1081F000144A1BE0BDF81620C2F389120332090CA1
:1082000003EB92035046CDE9013101F00BFA0299DC
:1082100000283BD0019BA360484601F0C7F9D4E990
:10822000013202F58072D21A072A5FD8012148462E
:1082300001F0BCF9584601F0E5F9504601F0E2F9C9
:10824000A368DAB2D11C04EB810014F821C01CF041
:10825000040F0CF0040128D104EB8202591CD268EF
:108260000592C9B204EB810102F00302012AC96838
:1082700003F1020332D0022ABCD000215046CDE9DE
:10828000013101F0CFF902990028C3D14846C4E773
:1082900043880EEB9313DAB2D11C04EB810014F87F
:1082A000211001F004010029D6D090F800C00CF094
:1082B000030CBCF1010F0BD0BCF1020F03F1020E55
:1082C00002F1030CE4D004EB8C000029EDD1C3E7EC
:1082D00002880233C2F383121344DCE7BDF8142092
:1082E000C2F38312090C13448CE72B46DAB2033233
:1082F000083340F285119DF8130044F822106360A2
:1083000000F070FEA81CE91C05F1040CC0B2C9B253
:108310006A1D04EB800004EB81015FFA8CFCAB1D4D
:1083200004EB8C0CD2B2C76004EB8202CE60EF1D6E
:10833000189ECCF80C60DBB2199ED66004EB830368
:10834000FFB21A9ADA6004EB87071B9B1448FB60A4
:10835000002101F0E5F880F310004FEAC8016B1C22
:1083600001F03801039A41F4C071DBB2EDB204EBC5
:10837000830341F001010004033540EA184041EA5B
:108380008221D86044F8251023781BB1FFF7BAF892
:108390000028FBD10FB0BDE8F08F00BF8032002075
:1083A0009C36002030B4154DD5F81014044600203A
:1083B00071B10B4601E01B6853B1DB681A79824248
:1083C000F9D101300A28F3D14FF0FF3030BC7047AB
:1083D000E3681871D5F810344BB1DA68E3681268B5
:1083E0001A60D5F81034DB681C6030BC7047C5F8E3
:1083F0001044E268136030BC704700BF8032002038
:1084000038B5084BD3F8104401251D704CB1E36812
:108410005D71236820465B689847E3681C68002C00
:10842000F5D138BD8032002030B5C38885B0044610
:108430000D461BBB217A05291ED0627A82B9134AE8
:10844000A08852F8212003920021FFF721F8039A17
:108450000F490346284605B0BDE8304001F05EB93B
:10846000A088FFF739F80B4B0B4953F8202028461A
:1084700001F054F9217AE2E705B030BD074A0092D5
:108480000749084A284601F049F9D3E76CFF040080
:10849000D0FE040048FF0400B8220500C8FE040016
:1084A000B0FE0400A8FE04002DE9F04385B04FF0B3
:1084B000000C0C9C814694F80C8084F80CC00E468D
:1084C0001746184621461D46FFF7AEFF062F09D86E
:1084D000DFE807F0042E343B444F1F004946204696
:1084E00001F01CF92B7A052B05D06B7A5BB9274973
:1084F000204601F013F9204601F004F984F80C80BD
:1085000005B0BDE8F083224A2249204601F006F971
:10851000EDE7D6E90413F2680393B3680291CDE95D
:1085200000324946D6E90023204601F0F7F8D9E7A2
:1085300032684946204601F0F1F8D3E7D6E9002336
:108540004946204601F0EAF8CCE7B3680093D6E943
:1085500000234946204601F0E1F8C3E7D6E902329C
:1085600001920093D6E900234946204601F0D6F84F
:10857000B8E7D6E90321B3680291CDE90032494654
:10858000D6E90023204601F0C9F8ABE7606F05008B
:10859000C8FE0400B8220500082900D970472DE95B
:1085A000F04F9B4683B000241B7B8BF80C400D469C
:1085B00006465946104690460193DFF8D0902C4F5E
:1085C000FFF732FF05E0325D013401F0A7F8082C17
:1085D00009D0A54239465846F5D84946013401F03C
:1085E0009DF8082CF5D12349DFF8A490224C234FA5
:1085F000584601F093F84FF0000A0DE0D15D11F0FC
:10860000970F08BF2E22214658460AF1010A01F0B1
:1086100085F8BAF1080F10D0554505D916F80A208B
:108620007E2AEBD92E22EEE7494658460AF1010A86
:1086300001F074F8BAF1080FEED198F80830052B64
:1086400002D098F8093063B90D49584601F066F830
:10865000584601F057F8019B8BF80C3003B0BDE889
:10866000F08F084A0849584601F058F8ECE700BF77
:10867000DCFE0400E8FE0400ECFE04004991050065
:10868000606F0500C8FE0400B8220500E4FE040087
:108690000C08050000B585B00346002101AA44F28C
:1086A0000100CDE90111039300F004F805B05DF875
:1086B00004FB00BF10B572B6FFF7A2FEFEF722FF63
:1086C0000028FBD1104B114C1149E41AE408240492
:1086D00044F00100FFF73EF80E4B1B68DB0700D5A6
:1086E00000BE0D4944F00200FFF734F8BFF34F8F8E
:1086F0000A490B4BCA6802F4E0621343CB60BFF334
:108700004F8F00BFFDE700BF409305009093050029
:108710008CFF0400F0ED00E098FF040000ED00E0A5
:108720000400FA0559B142B1531E1A4005D18260C6
:1087300001608380C26010467047092070470E2098
:10874000704700BF10B48468C26803468088121B5B
:10875000904203D204205DF8044B7047DA681C682D
:1087600002400020A154DA680132DA605DF8044B5F
:10877000704700BF03468068DA6890420DD010B49D
:1087800098689A881C6802400020A25C0A709A6867
:1087900001329A605DF8044B70470520704700BFB6
:1087A000D0E90223D1E90201994208BF90422CBFCF
:1087B00001200020704700BF2DE9F04F2DED028B06
:1087C00085B0064600F03AFD40B1B54AD2E9003125
:1087D00013F1807341F10001C2E9003100213046FC
:1087E00000F048FDAF4C60B1236853B1AE4B256833
:1087F0001B7823B11DB12B7F002B40F01C8100237F
:1088000023600121304600F035FD002840F0F6805D
:10881000A64803A900F0D6FD78B3A54DDFF88882FD
:10882000A24F0BE0002B00F0CD8003A9384600F0EA
:10883000F9FD03A9384600F0C5FDF0B10378012B1E
:1088400012D0022BEED128464FF0000901F0C2FCF5
:1088500030B180F81C90284601F0BCFC0028F8D10B
:10886000012388F80030E0E741682368994200F06E
:10887000BA80284601F0B8FCD7E7DFF834828D4F84
:10888000DFF81C9208EE106A37E0404601F0A2FCC7
:1088900005463846AB68EA680193009200F0FAFC9E
:1088A000854E8446D9E90001D6E9002310EB0C007F
:1088B00041F10001994208BF9042DDE9002303D253
:1088C00010F1807041F10001B3EB000A62EB010B83
:1088D000BAF1010F7BF1000329DBBAF5350F6BD23A
:1088E000AA684FF496030021384600F021FC0028C6
:1088F0005AD00D281FD000232360404601F070FCA1
:10890000002873D02368002BBFD02368D0E9020170
:10891000D3E90223994208BF904248D223681B7FC3
:10892000002BB2D02168404601F040FCADE70021A9
:10893000384600F093FC5C4B1B78002BDBD02B7F80
:10894000002BD8D0384600F0A5FC8446D9E90001B8
:10895000D6E9002310EB0C0041F10001994208BF59
:10896000904203D210F1807041F10001D5E9022359
:10897000994208BF904259D32B6903B92B77D5E9A7
:108980000530984729690029B5D02B7F002BB2D03C
:10899000D5E90223521843F10003C5E90223294611
:1089A000404601F003FCA6E72368BBB1256005B093
:1089B000BDEC028BBDE8F08F384600F06BFC3F4AFF
:1089C00002448EE743681A7F002A7FF42EAF01220B
:1089D0001A774168284601F0E9FB26E718EE100AED
:1089E00000F078FBE2E7002323601EE72368002BFA
:1089F000DDD118EE100A00F071FBD8E72D482E4D9E
:108A000000F048FC264BD3E90089D5E9002318EB98
:108A1000000849F10009994508BF904503D218F1B3
:108A2000807849F10009C5E90089F1E62946404608
:108A300001F0BCFB5FE71F4800F02CFC184A1E4BFE
:108A4000D2E90089D3E9002318EB000849F10009B5
:108A5000994508BF904503D218F1807849F1000983
:108A6000D5E90223994508BF904529D32B6903B95D
:108A70002B77D5E905309847296900293FF4BFAE27
:108A80002B7F002B3FF4BBAED5E90223521843F1F4
:108A90000003C5E902230648294601F087FBAEE63C
:108AA00040370020903A002048370020743A0020D8
:108AB000B8FF0400F82B0020883A0020FFFFB40024
:108AC0000248294601F072FB99E600BFB8FF040096
:108AD00010B5144B14491B68144882B04FF44A7205
:108AE0000193082300F0F6FB044610B1204602B0C3
:108AF00010BD0F4A0F4801A900F08CFA0446002867
:108B0000F4D10C48012100F08FFB012319460A4AD9
:108B1000084800F0E7FA094B012220461A7002B01B
:108B200010BD00BFB4FF04004C370020743A002091
:108B3000B9870200F82B0020FFFF7F004837002094
:108B40004AB1A1F101010368B1FA81F14909C3E910
:108B50000412002070470720704700BF037F0BB14D
:108B600000207047F0B5826183B004461A480D4674
:108B700000F090FB194B1A49D3E90023D1E90067B3
:108B8000121843F10003BB4208BFB24203D212F1F4
:108B9000807243F100035219216943F10003C4E9D3
:108BA000022301B125610F4801A900F0CDFB48B1B6
:108BB00000254460057001A90A4800F0F3FB20B9C4
:108BC00003B0F0BD042003B0F0BD034800F066FB25
:108BD000284603B0F0BD00BFF82B0020403700202E
:108BE000883A0020743A002030B5002583B004464E
:108BF000057701A90B4800F0A7FB78B1012244607A
:108C0000027001A9074800F0CDFB08B903B030BDE0
:108C1000054800F043FB284603B030BD042003B0F4
:108C200030BD00BF743A0020F82B002010B50E4B69
:108C30000E4882B0002401A91C7000F085FB78B1B9
:108C400002234460037001A9084800F0ABFB08B997
:108C500002B010BD064800F021FB204602B010BD56
:108C6000042002B010BD00BF48370020743A002035
:108C7000F82B0020401A20F07F407047014800F098
:108C800009BB00BFF82B002030B50478012C83B05D
:108C900004D0022C2DD0ECB103B030BD037A002BF0
:108CA0003CD04368364D19782846FFF74BFD002825
:108CB00054D0344B01901B688DF8004068469847AB
:108CC000A968EB68AA885B1A9A4227D22E4B012228
:108CD0001A70E1E72D492E48FFF74CFD00282ED0F1
:108CE000284B03221B688DF800206846984703B084
:108CF00030BD284B284D1A78C168AA5C01918DF8C7
:108D00000040B2B9254903F10C00012203F034F907
:108D10001C4B68461B68984703B030BD1D4B1E4A6C
:108D20001B781E49D35C0122A3B11D4803F0B0FC9F
:108D3000B2E71A49181D012203F0AAFCE8E715481A
:108D4000154A0378D35CA3B110490122043003F023
:108D500037FCA1E7134803F00FF99DE7AA68EB6819
:108D60009A42ADD0074B8DF800001B6868469847C3
:108D7000A6E7064901220C3003F08AF88CE700BF11
:108D8000983A0020943A0020A83A0020C03A0020E7
:108D9000AC3A0020002C002094970120BC3A00201F
:108DA000042C00200C2C00202DE9F041334D8AB01A
:108DB0002A60002956D08A8880460D4630480968C6
:108DC0001C46FFF7AFFC10B10AB0BDE8F081AA89DC
:108DD000A9682C48FFF7A6FC0028F5D12A4E98F880
:108DE00010C02A4F0FCE02AD0FC596E80F0098F8BD
:108DF0001160BCF1000C85E80F0018BF4FF0010CAA
:108E0000D8F804300193002ED8F81430D8F8085060
:108E10008DF8244014BF0E220022D8F80C40D8F858
:108E200000608DF81D200893194A019B8DF81CC025
:108E300002A93846CDE904450396029301F0EEFC01
:108E40000028C1D1D8F80030124A01331070BBD0CD
:108E5000114A3B78D35C4BB11049381D012203F015
:108E600017FCB1E707200AB0BDE8F0810B4907F114
:108E70000C00012203F080F8A6E700BF943A00201E
:108E8000983A0020AC3A0020C4FF0400002C0020D7
:108E9000898C0200A83A002094970120BC3A002057
:108EA00070B5114D014611482E78FFF763FC04465A
:108EB0000EB9204670BD0E480E4A0378D35C0022DE
:108EC0002A7053B10C490430012203F0E1FB002861
:108ED000EFD0FFF7DFFB204670BD074901220C30C1
:108EE00003F04AF8F3E700BFA83A0020983A0020C0
:108EF000002C002094970120BC3A002070B5014658
:108F00001548FFF71FFC044608B1204670BD134DFD
:108F1000134E2B78F35CA3B1281D03F0ABFB0028A4
:108F2000F3D110490C48FFF725FC0028EDD12B7830
:108F30000C49F35C01224BB1BDE870400A4803F0D4
:108F40003FBB05F10C0003F00BF8E8E7BDE870400B
:108F5000064802F09DBF00BFAC3A0020002C002064
:108F600094970120C03A0020042C00200C2C0020F3
:108F700008B50748074A0378D35C23B1043003F0EF
:108F800067FA002008BD0C3002F0FCFE002008BD8E
:108F9000002C00209497012070B4EFF3108472B677
:108FA0000D4B9A68AAB90D490D4E01259D60D1F867
:108FB000805035401D60C1F88060D1F884505D60FC
:108FC0004FF0FF33C1F88430027004B962B670BC50
:108FD000704701230370F8E78897012000E100E063
:108FE000FC06FFBD094B9A687AB170B910B4EFF373
:108FF000108172B6064A1C6814605C685460986000
:1090000001B962B65DF8044B70477047889701203C
:1090100000E100E070B5274C4379274E04EBC3050F
:1090200046F823202D79002D37D103680A88C3F82C
:10903000082590F904308A78002B26DB03F1604381
:1090400003F561435201D2B283F8002390F9043052
:10905000002B07DB194903F01F0501225B09AA4019
:1090600041F823204279164B164D44F83200581B24
:1090700004EBC204C008012300041349237140F02B
:109080000300FEF767FB002070BD104903F00F03DB
:1090900052011944D2B20A76D8E70A4B08480C4963
:1090A000C01AC008000440F00200FEF753FB08207D
:1090B00070BD00BFC43A0020CC3A002000E100E0BF
:1090C000A09305004093050008000500FCEC00E0BB
:1090D000E4FF0400036801221A607047036801225C
:1090E0005A607047F0B404684FF480358D40C4F87E
:1090F0000853066801F15004C6F84853A4000668F6
:10910000A4B20027375182B036590468019601F5A0
:10911000A87122F07F42019E44F821200268C2F823
:10912000445313B10368C3F8045302B0F0BC704752
:109130002DE9F04704464FF4803600688E40C0F8B1
:1091400048632068C0F80863206800EB81058A4600
:10915000D0F80415D5F84005C5F840150AF15005BA
:10916000AD002768ADB24FF0000847F8058082B027
:10917000401A7F59009720F07F40012822F07F4756
:109180009946009A41D02268D2F80455C2F8446347
:109190007A1B22F07F42012A0AF5A87125D02268A5
:1091A00042F821702068D0F804557A1BC9F1FF13EA
:1091B000013A03F57F4322F07F42934211D342B13B
:1091C000C0F8446323680020C3F8046302B0BDE81C
:1091D000F087013740F821702068D0F804359D42AF
:1091E000EED00D2002B0BDE8F08720680D4B0137AE
:1091F00040F8217043F001034FF4806098472068E5
:10920000D0F804359D42DBD0EBE7064A4FF480608E
:1092100042F001029047226842F8058052590192BB
:10922000019AB0E72000050002680223C2F8443327
:1092300011B10268C2F80433704700BF0368D3F865
:10924000040100B97047002282B0C3F80421D3F8AA
:1092500004310193019B012002B0704702684FF472
:10926000803303FA01F1C2F848130368C3F8081306
:10927000704700BF50318900036889B2585800B95F
:10928000704700225A5082B05B580193019B012025
:1092900002B070470368D3F80405704790F90430B2
:1092A000002B09DB5A090548403203F01F03012156
:1092B00001FA03F340F82230704700BF00E100E0FC
:1092C000024A034B10681B68184700BFC43A0020CD
:1092D000CC3A002099B110B4B2FBF3F403FB142490
:1092E000A4B244B9C0E9001484608281C3812046DD
:1092F0005DF8044B704709205DF8044B70470E2061
:10930000704700BF82B050E8022FC188B2EB324FE5
:109310004FF0000317BF92B241EA014142EA014116
:1093200004E04268B2EB324F08BF012340E802126A
:10933000002AE8D18DF807309DF80730002B0CBFCC
:109340001120002002B0704730B482B050E8013FD5
:109350009DB2C48925448489A54228BF2D1B048958
:10936000A54202BFBFF32F8F002207E0C5EA030525
:1093700040E80154002CE9D14FF001028DF80320A0
:109380000193019B9DF803200B602AB10B880068B4
:10939000184402B030BC704702F0FF03184602B018
:1093A00030BC70470A884B889A4201D00020704731
:1093B00050E8012FC2EA024240E80123002BF7D116
:1093C0000120704730B482B050E8023F1FFAA3F585
:1093D000C488A54202BFBFF32F8F00220DE0C489CD
:1093E00025448489A54228BF2D1BC3EA054540E8D2
:1093F0000254002CE8D14FF001028DF803200193B4
:10940000019B9DF803200B602AB14B88006818442B
:1094100002B030BC704702F0FF03184602B030BC07
:10942000704700BF0A884B889A4201D000207047DD
:1094300050E8022FC2EA224240E80223002BF7D173
:10944000012070474A09012301F01F0100EB82004F
:1094500003FA01F100F080B84B0910B501F01F04C8
:10946000012100EB8300A14000F068F8E04000F02B
:10947000010010BD01F01F0201234909934000EBD8
:109480008100D94300F076B84B0901F01F0150F874
:109490002300C84000F00100704700BF2DE9F04FE5
:1094A00001F1FF3B83B04FEA5B130F460546019382
:1094B00000264FF0010A55F8264005EB8608E443E4
:1094C00094FAA4F4FCB1B4FA84F404EB46144FEA21
:1094D0004619A74217D904F01F0360090AFA03F1DD
:1094E00005EB80009B4600F029F820FA0BF0C3073B
:1094F00011D5D8F80030DB4393FAA3F3B3FA83F421
:109500004C44002BE5D1019AB24206F1010301D08F
:109510001E46D0E73C46204603B0BDE8F08F00BFB2
:1095200010B4034653E8000F0A4643E8002494F0C1
:10953000000FF7D15DF8044B704700BF10B403462D
:1095400053E8000F40EA010243E8002494F0000FC2
:10955000F6D15DF8044B704710B4034653E8002F72
:1095600042EA010043E8000494F0000FF6D15DF8F0
:10957000044B704710B4034653E8002F02EA010081
:1095800043E8000494F0000FF6D15DF8044B7047F7
:1095900010B4034653E8000F00EB010243E8002437
:1095A00094F0000FF6D15DF8044B704710B40346F9
:1095B00053E8002F02EB010043E8000494F0000F91
:1095C000F6D15DF8044B704710B4034653E8002F02
:1095D000A2EB010043E8000494F0000FF6D15DF81F
:1095E000044B704710B40346012253E8000F40EAD1
:1095F000020143E8001494F0000FF6D15DF8044B2B
:10960000704700BF10B40346012253E8001F41EA2F
:10961000020043E8000494F0000FF6D15DF8044B1B
:10962000704700BF10B40346002253E8000F00EA61
:10963000020143E8001494F0000FF6D15DF8044BEA
:10964000704700BFB8B130B4D0E90112521A0468B3
:10965000D2B2531E2160DBB242B101680A685C1EBF
:10966000551C0D601370E3B2FF2BF6D10368002088
:10967000187130BC70470E20704700BFF0B583B042
:10968000044600250DF107008DF80750FFF784FC14
:10969000D4E900311A688A4210D9511E1960216834
:1096A000A3680F6812F8015C0A79268AE068DB1B60
:1096B000DBB29A4206FB050538BF0B719DF8070027
:1096C000FFF790FC284603B0F0BD00BF30B505465B
:1096D00083B000230DF107000C468DF80730FFF72B
:1096E0005BFC2A681368591C1160E9682A8A641AAD
:1096F000B4FBF2F41C709DF80700FFF773FC03B095
:1097000030BD00BF826842B110B5044643690168AC
:10971000006998470023A36010BD70470EB400B5E0
:1097200082B0039921B104AB01AA019300F0ACF817
:1097300002B05DF804EB03B0704700BF2DE9F04FB5
:10974000164683B0B142DDE90C920F4605469A46B3
:10975000C0F095800B464FF00108B3FBF6F39E4234
:1097600008F10108F9D9D04538BFD04612F00103FD
:10977000019302D1B9F1000F5ED1AA68012403E080
:109780000AF1FF3A06FB04F4BAF1010FF8D8B7FB6F
:10979000F4F39E42F6D9DFF8ECA007E0B442B4FB44
:1097A000F6F31AD3AA681C46B7FBF3F31AF803B012
:1097B000BBF10A0F04FB137728D02B68511CA9605A
:1097C00003F802B0D5E901329A42E7D32846FFF701
:1097D00099FFB4FBF6F3B442E4D2019B9BB1B9F11B
:1097E000000F10D02024C84509F1FF390BD2AB6817
:1097F0002A68591CA960D454D5E901329A4214D27E
:10980000B9F1000FEFD103B0BDE8F08F511C2B6808
:10981000A9604FF00D019954D5E901329A42CCD399
:109820002846FFF76FFFAA68C7E72846FFF76AFFD9
:10983000B9F1000FD7D1E6E793071AD42024AA681C
:10984000C84502F1010199D22B68A9609C54D5E961
:1098500001329A4209F1FF3903D2B9F1000FEFD179
:109860008CE72846FFF74EFFAA68B9F1000FE7D151
:1098700084E7BAF1000F0CBF30242024DFE74FF05B
:10988000010870E728000500002900F054822DE946
:10989000F04FDFF8B8950C7885B0064690460D4637
:1098A0004FF00D0A10E00A2CB36800F0AD8032686A
:1098B000591CB160D454D6E901329A4280F0A0809C
:1098C0002C78002C00F087800135002C00F083807C
:1098D000252CE8D1294600270D4611F8012B2D2A09
:1098E00000F08880302A00F088802B2A7AD02A2A3B
:1098F00000F09980A2F13003092B4FF000040BD83F
:1099000004EB840402EB440415F8012FA2F13003A8
:10991000092BA4F13004F3D92E2A00F09080002303
:1099200001E015F8012F02F0FB016829F9D0252A82
:1099300000F07781583AD1B2202947D8202A45D85B
:10994000DFE812F0350144004400440044004400C4
:109950004400440044004400440043011301440017
:109960004400440044001301440044004400440007
:1099700044004400D20044004400A200440094008B
:1099800044004400350101209842024638BF1A467F
:109990000292002C40F05081B80740F16E81002BFC
:1099A00040F04E821C46BBF1000FC0F20A827A07DB
:1099B00000F11A8207F00302022A00F0EA81CDE9E1
:1099C000004759460A223046FFF7B8FE01352C7889
:1099D000002C7FF479AF337B002B40F01C8105B065
:1099E000BDE8F08F0D4611F8012B2D2A47F0040732
:1099F0007FF478AF47F001076EE747F002076BE7A7
:109A00003046FFF77FFE5BE73268591CB16002F811
:109A100003A0D6E901239342FFF449AF3046FFF794
:109A200071FEB36843E7D8F800301A1DC8F800206B
:109A30006A781C682E2A05F101057FF470AF6A78F8
:109A4000A2F13003092B05F101054FF000033FF6A9
:109A50006AAF03EB830302EB430315F8012FA2F176
:109A600030010929A3F13003F3D95CE7D8F80020CD
:109A7000111DC8F8001011683046CDE900470A22D0
:109A8000FFF75CFE0135A2E7D8F800301A1DC8F8D0
:109A9000002017F00107D3F800B040F0F080BBF1D0
:109AA000000F03D0584624F0EFFE0746BC4240F2B8
:109AB0004381002C00F04081202205E0BC4200F0F0
:109AC0003B81002C00F03881B1683368481CB060DD
:109AD0005A54D6E90130984204F1FF34EED33046AF
:109AE000FFF710FE2022E9E7D8F80020131DC8F880
:109AF0000030B36831681768581C3022B060CA540F
:109B0000D6E90123934280F0EF803268581C782117
:109B1000B060D154D6E901329A4280F0E0800F2F34
:109B200003D93B461B090F2BFCD84FF0805406E0AD
:109B30000F2C4FEA14137FF649AFB2681C46B7FBEF
:109B4000F4F319F803B0BBF10A0F04FB137754D0F8
:109B50003368511CB16003F802B0D6E901329A4271
:109B6000E6D33046FFF7CEFDE2E7D8F80020111D1E
:109B7000C8F80010D2F800B08BEAEB72A2EBEB72DF
:109B8000092A7FF700AFDFF8C8C201201146632918
:109B9000ACFB02E200F101004FEAD202F6DC98428F
:109BA000024638BF1A460292002C45D1F4E6D8F896
:109BB0000020111DC8F8001011683046CDE900479B
:109BC0001022FFF7BBFD013501E7D8F800301A1D60
:109BD000C8F800201C78B3680A2C00F011813268A4
:109BE000591CB160D454D6E901329A42FFF4EEAE6A
:109BF0003046FFF787FD0135E9E63368511CB16057
:109C000003F802A0D6E901329A42A1D33046FFF709
:109C100079FDB2689CE7304605B0BDE8F04FFFF72C
:109C200071BDB3683168581CB060CA54D6E90132BE
:109C30009A42DDD20135CAE6BBF1000F59DB7A0743
:109C400057D4B80702D5002B3FF4ADAEF9073FF566
:109C5000AAAE94B120220299A142BFF4A4AEB16889
:109C6000481CB06030684254D6E90101814204F1D9
:109C7000FF3480F0D480002CEDD1002493E69BF8D3
:109C80000030002B00F0E080B0685F46CBF10102AD
:109C90000A2B02EB070B3CD0411CB16031680B541E
:109CA000D6E90130984226D217F8013F002BEFD1B8
:109CB0005C457FF68BAE202702E05C453FF486AE24
:109CC000B2683368511CB1609F54D6E901329A42A0
:109CD00004F1FF34F1D33046FFF714FDEDE73046D1
:109CE000FFF710FDB2681AE73046FFF70BFDB368C7
:109CF0000BE7013CA5E730460292FFF703FD17F89A
:109D0000013F002BD4D0029AB0680A2B02EB070B5C
:109D1000C2D1411CB160316801F800A0D6E9011040
:109D20008842B9D33046CDE90232FFF7EBFCDDE9DA
:109D30000232B068B0E770479BF80040002C3FF457
:109D400045AE0A2CB0680ED03368421CB2601C5479
:109D5000D6E90130984214D21BF8014F002C3FF491
:109D600035AE0A2CF0D13368421CB26003F800A073
:109D7000D6E901309842E7D33046FFF7C3FCB0681C
:109D8000E2E73046FFF7BEFC1BF8014F002CD8D1AC
:109D90001CE6002B7FF413AE8CB130220299A14255
:109DA000BFF40DAEB168481CB06030684254D6E9CB
:109DB0000101814204F1FF343BD2002CEED100249A
:109DC000FDE5B1684A1CB26032682D205054D6E9D6
:109DD00001219142CBF1000BFFF4ECAD304603932F
:109DE000FFF790FC039BE5E5B1684A1CB26032685E
:109DF0002B205054D6E901219142FFF4DBADEDE771
:109E00003268591CB16002F803A0D6E901239342DD
:109E1000FFF4E5AE3046FFF775FCB368DFE6304689
:109E20000393FFF76FFC039B2022002C7FF413AFFA
:109E300023E730460393FFF765FC039B3022BCE722
:109E4000F9073FF5B0AD18E79B4631E7280005005C
:109E5000CDCCCCCCFFF7F6BB2DE9F041058A033120
:109E6000043D4E198046B6FBF5F6FFF707FCA0B39C
:109E7000F6B24FF48073013E0446C580C0F80080FE
:109E800083802BD00346002508E06279AE4202F1C0
:109E9000010262713860C0F800801FD040461F4642
:109EA000FFF7ECFB013503460028EED16779791EF8
:109EB00017D02246013399421268FBD1D2F80080B4
:109EC0005FB12668002501E0344636682146013539
:109ED0004046FFF7FBFBAF42F6D800242046BDE822
:109EE000F08120682146FFF7F1FBF6E704300121FD
:109EF000FFF75CBB2DE9F041012104460430FFF778
:109F000063FB10F0FF0301D0BDE8F0816779791E93
:109F100016D02246013399421268FBD1D2F8008054
:109F2000002FF1D02668002501E03446366821462E
:109F300001354046FFF7CAFBAF42F6D8BDE8F081D5
:109F400020682146BDE8F041FFF7C0BB2DE9F8438A
:109F50000546C6884079144606FB00F2043A04EB35
:109F6000030C1F1D624538BFD41ABE428846B7FB9A
:109F7000F6F106FB117002D801392D68FCD1371AB1
:109F8000A74228BF27469CB14FF000090430E41BCC
:109F900028443A4608EB090124F038FCA642B944AB
:109FA0002D6837464FF0000028BF2746002CEDD122
:109FB000BDE8F8832DE9F8430546C6884079144684
:109FC00006FB00F2043A04EB030C1F1D624538BF88
:109FD000D41ABE428846B7FBF6F106FB117002D8D0
:109FE00001392D68FCD1371AA74228BF27469CB1FA
:109FF0004FF0000904302918E41B3A4608EB090029
:10A0000024F004FCA642B9442D6837464FF0000006
:10A0100028BF2746002CEDD1BDE8F88333DF704719
:10A0200041DF7047064A074B10B5002414701C60CE
:10A03000BFF35F8F0449054800F0A2F8204610BD29
:10A04000D93A0020DC3A002044000500D03A002034
:10A0500000B583B000230DF107008DF80730FEF73F
:10A060009BFFF1EE103A23F09F03E1EE103ABFF3AD
:10A070005F8F0B4B4022C3F884219DF80700FEF749
:10A08000B1FF06F0DBFA28B920BF40BF20BF03B004
:10A090005DF804FBFFF7C4FF03B05DF804FB00BFED
:10A0A00000E100E0F8B5294D044601212846FFF7FC
:10A0B00037FABFF35F8FD8B9042C41D0244B1A78FC
:10A0C0006ABB244E012234701A70234C636883B13A
:10A0D000274603E000F05EF8636853B11B683078F0
:10A0E000984703463846002BF4D1BFF35F8F2B60AF
:10A0F000F8BDFEF785F9FDF705FA0028FBD13378A6
:10A10000023B012B0FD906F099FAD8B94FF08043E2
:10A110000122C3F80025BFF34F8F20BFFDE7BFF337
:10A120005F8F2860F8BDBFF34F8F0C490C4BCA6896
:10A1300002F4E0621343CB60BFF34F8F00BFFDE733
:10A14000044EC2E7FFF76AFFE0E700BFDC3A0020F9
:10A15000D93A0020D83A0020D03A002000ED00E0A3
:10A160000400FA05826800239360826813618268A4
:10A1700053618268D360826853608268136070475D
:10A1800001600B6843604A68934204BF0023436048
:10A19000704700BF436843B1026891680B44436055
:10A1A0005268934204BF00234360704770B544680F
:10A1B000064620680D4618B908E02468206828B1D2
:10A1C000B368294698470028F7D1206828602560A1
:10A1D00070BD00BF4368186808B102681A60704714
:10A1E00043681868704700BF4368186818B908E0EA
:10A1F0000346006828B18142FAD10A681A6001203A
:10A2000070477047114910B4A1F5947205E052F8F7
:10A210003330984238BF21460CD28C1AE30F03EB3F
:10A22000E4035B10914202EBC304F0D808485DF8E8
:10A23000044B704702D904F10802EEE76068044B52
:10A240005DF8044B002808BF1846704784050500D8
:10A250004804050030B587B0057844688DF804508F
:10A2600002948568084A094B8DF80C50D0E90340E8
:10A2700053F821308DF8140052F82110049401A8ED
:10A28000984707B030BD00BFE03A0020F03A002008
:10A290002DE9F04F1A4EDFF86CE0DFF86C90DFF834
:10A2A0006CA00C46154607469B4696E80F0087B003
:10A2B00002AE86E80F0017F804CB23680193002D47
:10A2C0004EF82C5094F8058094F804E04AF82CB02D
:10A2D000314608BF2A46019EA568A48902963846E1
:10A2E00018BF4A4663468DF80DE08DF80E80049540
:10A2F000ADF8144001F00AF907B0BDE8F08F00BFD7
:10A3000084050500F03A002055A20200E03A002042
:10A31000BFF34F8F0549064BCA6802F4E06213434E
:10A32000CB60BFF34F8F00BFFDE700BF00ED00E043
:10A330000400FA0508B5814B1B685A1C00F0988090
:10A340007F4A0D2B12681FD07E4AD2F8883043F422
:10A350007003C2F88830BFF34F8FBFF36F8F4FF099
:10A360001023D3F80C22D20700F1C980D3F80022C1
:10A37000002AC0F29E80D3F80432002BC0F29980EC
:10A38000714B724A1A6008BD012A00F290806B4A34
:10A390004FF0804311680022C3F80C21C3F810214C
:10A3A000C3F838254B1C6FD0654B0D291A68CBD1EB
:10A3B000012A7CD84FF08052654BD2F80414C3F8C0
:10A3C0002015D2F80814C3F82415D2F80C14C3F8D9
:10A3D0002815D2F81014C3F82C15D2F81414C3F8A9
:10A3E0003015D2F81814C3F83415D2F81C14C3F879
:10A3F0004015D2F82014C3F84415D2F82414C3F839
:10A400004815D2F82814C3F84C15D2F82C14C3F808
:10A410005015D2F83014C3F85415D2F83414C3F8D8
:10A420006015D2F83814C3F86415D2F83C14C3F898
:10A430006815D2F840144148C3F86C15D2F844149A
:10A440000268C3F87015501C2AD03D4B1B680D2ABA
:10A450007FF47AAF012B3FF677AF4FF08043D3F80C
:10A460000024D10744BF6FF00102C3F800246BE75A
:10A47000384A394B12781B680D2A4FEA13137FF4C0
:10A4800063AF13F00E0F82D0324A334B12781B6841
:10A490000D2A4FEA13137FF457AF13F00E0F89D034
:10A4A0002D4B2C4A1B681278C3F30313CFE70D2200
:10A4B000CBE72A4A0123C2F80435D2F80034002B36
:10A4C000FBD04FF010231221244AC3F80012D2F817
:10A4D0000034002BFBD04FF0102312211F4AC3F889
:10A4E0000412D2F80034002BFBD000231B49C2F821
:10A4F0000435D1F80034002BFBD0FFF709FF174BD0
:10A500000122C3F80425D3F80024002AFBD04FF021
:10A510001021124AD1F80C3223F00103C1F80C3299
:10A52000D2F80034002BFBD000230C49C2F80435CC
:10A53000D1F80034002BFBD0DFE700BF3001001062
:10A540003401001000ED00E0142C00200090D00336
:10A5500000C00040E00F00F0E80F00F000E0014014
:10A5600042DF704743DF704744DF704710B568B97A
:10A570000E4CA368012262703BB1D3E90023002096
:10A58000A2609847A368002BF7D110BD0128FCD129
:10A59000064C2369A070002BF7D0D3E900230120DB
:10A5A000226198472369002BF7D110BD003B0020A2
:10A5B00070B910B5074CA368012262703BB1D3E9B2
:10A5C00000230020A2609847A368002BF7D110BD9C
:10A5D000704700BF003B002030B5012883B004D095
:10A5E000032821D0B0B103B030BD294C00230DF1B8
:10A5F00007008DF80730FEF7CFFC23786BB3E368D4
:10A600009DF8070001330122E360A270FEF7EAFC27
:10A6100003B030BD1F4B0122C3F88020BFF34F8F22
:10A62000BFF36F8F03B030BD194C00F047F9002322
:10A630000DF107008DF80730FEF7AEFCE368013B33
:10A64000E360E3681BB9144BD3F80054C5B19DF81F
:10A650000700FEF7C7FC03B030BD10486360A3607D
:10A660002361E36000F01EF905F0E8FF60B10A4ADB
:10A6700001232370D2F80024002AC0D0A370BEE7C3
:10A6800000F02EF9A570E2E700F018F9EFE700BF3F
:10A69000003B002000E100E0000001406DA5020049
:10A6A00030B51D4D6B7883B004469BB110B1436843
:10A6B0000020984700230DF107008DF80730FEF7C2
:10A6C0006BFC6B689DF8070001336B60FEF78AFC3A
:10A6D00003B030BD03F0FF020DF107008DF8072035
:10A6E000FEF75AFC64B1AA6842B1944208D01346FE
:10A6F00001E09C4204D01B68002BFAD12260AC60C0
:10A700006B68002BDDD105F099FF10B900F004F95A
:10A71000D7E7FFF725FFD4E7003B002070B5154CC5
:10A7200082B000230DF107008DF80730FEF734FCEE
:10A730006368013B636065682DB19DF80700FEF713
:10A7400051FC02B070BD05F079FF064640B900F03B
:10A75000F5F89DF807006670FEF744FC02B070BD86
:10A76000FFF700FF9DF807006570FEF73BFC02B0A5
:10A7700070BD00BF003B002000B583B005F05EFF58
:10A7800068B94FF08043D3F80C0400F00110A0F139
:10A790000110B0FA80F0400903B05DF804FB01A895
:10A7A000FFF7E2FE0198003818BF012003B05DF802
:10A7B00004FB00BF30B585B0047845688DF80040D3
:10A7C000D0E90240064A074B039053F82130019527
:10A7D00052F821108DF808406846984705B030BD02
:10A7E000143B00201C3B002030B585B00478456840
:10A7F0008DF80040D0E90240064A074B039053F819
:10A800002130019552F821108DF80840684698478C
:10A8100005B030BD143B00201C3B00202DE9F04763
:10A82000DFF8748090F800E04B7F08F80E300D469A
:10A83000074616460FCD88B06C460FC495E80F004A
:10A840003D78DFF85890DFF858C018F8055049F8FF
:10A850002E6084E80F004CF82E00CDF810E05DB1BA
:10A86000002E0B4A694607F1040008BF324601F08A
:10A87000DBFC08B0BDE8F087002E064A694607F108
:10A880000C0008BF324601F085F908B0BDE8F0873A
:10A89000B5A70200E9A70200949701201C3B002005
:10A8A000143B0020044A137923B90121106011716F
:10A8B0001846704785207047243B0020074B1A68D4
:10A8C000D20704D4C02283F8002301221A604FF07B
:10A8D00080430122C3F81825704700BF00E100E063
:10A8E00010B40B4B0B494FF0804200200224C2F8F9
:10A8F000084383B018601B680193012301980B6023
:10A90000D2F81834DB03FBD403B05DF8044B704776
:10A91000040100400C000040074B00221A6082B086
:10A920001B68019301994FF080430122C3F804236F
:10A930001A6002B0704700BF0001004010B40C491B
:10A940000C484FF0804201230024C2F8083383B042
:10A950000C600968019101990360D2F80C3403F08E
:10A960000113B3F1011FF8D003B05DF8044B704739
:10A97000000100400400004010B5134B1A6882B07B
:10A9800062B1002018601B6800934FF080420F4BAB
:10A99000009C0121C2F808131B6898470C4B1A68E9
:10A9A00082B100221A601B6801934FF0804202219D
:10A9B000064B0198C2F808131B68012002B0BDE8DD
:10A9C0001040184702B010BD00010040243B002099
:10A9D0000401004030B5284C94F8643083B0002B5B
:10A9E00047D140F2FF30FF255A09012A0CBF024629
:10A9F0004FF0FF3203F01F01CA40D20748BFE218F0
:10AA000003F1010348BF82F830502A2BECD14FF0FC
:10AA1000FF304FF0FF314FF0FF33C4E900014FF634
:10AA2000FF75062200211548A4F85A30C4E9023304
:10AA3000C4E90433C4E90633C4E90833C4E90A337A
:10AA4000A4F85C5023F0F0FE0D4BC02283F80623DF
:10AA500040221A600B4B0C4A002018601B680193BF
:10AA600001214FF00043019D84F86410C2F80433C3
:10AA700000E0082003B030BD303B00208E3B0020BA
:10AA800000E100E07C61004000600040034B93F86F
:10AA90006400003818BF0120704700BF303B002021
:10AAA000F0B4754B1D1895F93040002C61DA8C78A4
:10AAB000A707C4F3400C53D41C6A013400F0D580BE
:10AAC0005C6A013400F0CA800C260A2453F8245032
:10AAD000013552D0651CB5423FD253F8257001377D
:10AAE00000F0B480A51CB54237D253F82570013769
:10AAF00000F0AC80E71CB7422FD253F82750013545
:10AB00003AD0271DB74228D253F82750013533D009
:10AB1000671DB74221D253F8275001352CD0A71D0D
:10AB2000B7421AD253F82750013525D0E71DB74256
:10AB300013D253F8275001351ED004F10807B7424D
:10AB40000BD253F82750013516D00934B44204D241
:10AB5000DC6A013408BF0B240FD00420F0BC70471E
:10AB60001C68013474D05C6801346DD0082602245E
:10AB7000ACE70820F0BC70473C461E1865B243F8AD
:10AB8000242086F83050BCF1000F02D11C4484F818
:10AB900052008A7854071AD4D60744D41F284C7818
:10ABA00087BF364E00F01F0202464FF0A04602F566
:10ABB000E072A40046F82240314EC40800F0070CB1
:10ABC000375D012202FA0CF23A4332558A7812F0CC
:10ABD00002021CD0AB0003F1804303F5C0430978A7
:10ABE000D3F8104524F44F3424F44074C3F81045CE
:10ABF00002020904D3F8100501F4403102F47C523A
:10AC00000A430243C3F810250020F0BC7047083DFA
:10AC10002B44087893F85A1041EA801183F85A10AF
:10AC20001046F0BC70471F2887BF144A00F01F046D
:10AC300004464FF0A04202EB8402D2F8004724F011
:10AC40000204C2F80047B7E7012496E72C4694E7D0
:10AC5000002485F830401A6025469AE7092685F8D1
:10AC600030605A623446354690E7082685F83060F1
:10AC70001A623446354689E7303B00200003005015
:10AC80008E3B002070B4324C251883B095F93030DB
:10AC9000072B22DD234493F852309B09032B46D027
:10ACA000012B0CBF4FF400324FF440321F288ABFF3
:10ACB000284B4FF0A04300F01F0003EB8000D0F8BA
:10ACC000003723F44033C0F80037D0F800371A4378
:10ACD000C0F8002703B070BC7047DAB2072AF9D871
:10ACE000980000F1804000F5C04003F1400292005E
:10ACF000D0F8106592B202F1804202F5C04246F0EF
:10AD00000106C0F810650020106012680192019AD7
:10AD10000029DFD095F9302054F82220002AD9D01C
:10AD20000D49012202FA03F3C1F80433D2E71F28C8
:10AD30008ABF084A4FF0A04200F01F03D2F8102546
:10AD400098BF0346DA4002F0010202321204ADE776
:10AD5000303B00200003005000600040F0B4404D44
:10AD60002B1893F93030072B43DD1F2887BF3D4A4E
:10AD700000F01F0101464FF0A04202EB8102D2F821
:10AD8000001721F44031C2F80017D2F80017C2F8BA
:10AD900000173549C40800F007020C5D012606FAC9
:10ADA00002F2144201EBD00150D01F288BBF00F0FB
:10ADB0001F0303462B4C4FF0A04403F5E07302261B
:10ADC00044F823600C782B1824EA02020A7093F8E6
:10ADD00030304FF0FF32072B45F8232003D92B44A6
:10ADE000FF2283F852202844FF2380F83030F0BC43
:10ADF0007047DEB2072ECCD89C0004F1804404F5E5
:10AE0000C0440122D4F81015DFF860C002FA03F341
:10AE100021F00101C4F810150027CCF8083305F122
:10AE20005E01C308C4F81075CB5C00F00704A240B3
:10AE3000134201EBD001B8D14FF0FF33284445F85D
:10AE40002630FF2380F83030F0BC7047DBB24FF083
:10AE5000FF3245F823202B44FF2283F85220C2E71B
:10AE6000303B0020000300508E3B0020006000407B
:10AE70002DE9F0410024284DDFF8A0806309012B63
:10AE800005F15E074FF0FF3613D104F01F0240F2C8
:10AE9000FF33D340DB0706D5291991F93030981CD0
:10AEA00011D0002B2DDA292C30D001346309012B6D
:10AEB000EBD026FA04F3DB07F7D52919224691F9DE
:10AEC0003030981CEDD1FF23E00881F83030395C38
:10AED00004F0070C012303FA0CF31942E3D0202CF1
:10AEE00038BF224602F5E07234BF4FF0A041414620
:10AEF0004FF0020C41F822C03A5C22EA03033B54B3
:10AF0000D1E72046FFF72AFF292CCED1002385F870
:10AF10006430BDE8F08100BF303B002000030050EA
:10AF20002DE9F047002384B0CDE90233D54A1168FA
:10AF3000012900F040821E46D34B1A68012A00F016
:10AF40002C82D24B1A68012A00F01982D04B1A6861
:10AF5000012A00F00682CF4B1A68012A00F0F38123
:10AF6000CD4B1A68012A00F0E081CC4B1A68012A07
:10AF700000F0CD81CA4B1A68012A00F0A181C94BAB
:10AF80001A68012A20D0E6B1C74F00240125A3008A
:10AF900003F18043354203F5C0434FEA45050BD02A
:10AFA000D3F8100557F82420D3F81015C0F3052066
:10AFB000C1F3014102B190470134082CE7D1002EC2
:10AFC00017DB04B0BDE8F08700221A601B6801930C
:10AFD0004FF0A042019BD2F82015B44B0291C2F869
:10AFE0002015D3F820250392C3F82025002E40F029
:10AFF0008B81AD4CAD4E01254FF0A04794F95A001E
:10B00000431C46D0C0F3C20204AB1A4400F007034D
:10B0100012F8082C05FA03F31A42C1B200F03F00FF
:10B0200037D01F2800F2258102464FF0A04909EBD6
:10B03000820304EB000ED3F800C7D3F8008728F48E
:10B040004038C3F80087CCF3014C9EF93080D3F828
:10B0500000E754F82880BCF1020F0CBF4FF4403ACF
:10B060004FF4003A05FA02F24EEA0A0EC3F800E77E
:10B07000C9F82025B8F1000F0BD08909032900F089
:10B08000B381BCF1020F00F0BE81BCF1030F00F0F0
:10B09000A88194F95B00411C46D0C0F3C20204AB06
:10B0A0001A4400F0070312F8082C05FA03F31A42B9
:10B0B000C1B200F03F0037D01F2800F2DE80024608
:10B0C0004FF0A04909EB820304EB000ED3F800C750
:10B0D000D3F8008728F44038C3F80087CCF3014C3C
:10B0E0009EF93080D3F800E754F82880BCF1020FB5
:10B0F0000CBF4FF4403A4FF4003A05FA02F24EEA20
:10B100000A0EC3F800E7C9F82025B8F1000F0BD0EC
:10B110008909032900F06D81BCF1020F00F06B81F9
:10B12000BCF1030F00F0628194F95C00421C46D030
:10B13000C0F3C20204AB1A4400F0070312F8082C53
:10B1400005FA03F31A42C1B200F03F0037D01F28BE
:10B1500000F2AE8002464FF0A04909EB820304EBF7
:10B16000000ED3F800C7D3F800879EF930E028F42A
:10B170004038C3F80087CCF3014CD3F800A754F84B
:10B180002E80BCF1020F0CBF4FF4403E4FF4003E46
:10B1900005FA02F24EEA0A0EC3F800E7C9F82025C4
:10B1A000B8F1000F0BD08909032900F01381BCF11D
:10B1B000020F00F02481BCF1030F00F0088194F924
:10B1C0005D00431C45D0C0F3C20204AB1A4400F03A
:10B1D000070312F8082C05FA03F31A42C1B200F073
:10B1E0003F0036D01F2867D802464FF0A04909EB30
:10B1F000820304EB000ED3F800C7D3F800879EF952
:10B2000030E028F44038C3F80087CCF3014CD3F881
:10B2100000A754F82E80BCF1020F0CBF4FF4403E43
:10B220004FF4003E05FA02F24EEA0A0EC3F800E7B8
:10B23000C9F82025B8F1000F0BD08909032900F0C7
:10B24000CE80BCF1020F00F0E280BCF1030F00F0F1
:10B25000C380D7F820250292C7F82025D6F82035DC
:10B260000393C6F8203513437FF4C8AE04B0BDE89D
:10B27000F08701F01F02B146D9E601F01F02B14686
:10B2800020E700BF00610040046100400861004009
:10B290000C610040106100401461004018610040E2
:10B2A0001C6100407C610040303B002000030050E6
:10B2B00001F01F02B14650E701F01F02B14696E7C8
:10B2C000554AD2F8042312067FF559AE00221A60BF
:10B2D00019680091196E0098012903F1600346F086
:10B2E00080067FF450AE1A601B6801934FF0A042B5
:10B2F000019BD2F82015494B0291C2F82015D3F8D2
:10B3000020250392C3F8202546F000463CE6424A39
:10B31000D2F8042351067FF52DAE00221A601B6877
:10B320000093009B46F0400624E63B4AD2F80423F3
:10B3300090067FF51AAE00221A601B680093009BEE
:10B3400046F0200611E6344AD2F80423D4067FF5ED
:10B3500007AE00221A601B680093009B46F010069F
:10B36000FEE52D4AD2F8042315077FF5F4AD00223F
:10B370001A601B680093009B46F00806EBE5264A1E
:10B38000D2F8042357077FF5E1AD00221A601B684D
:10B390000093009B46F00406D8E51F4AD2F8042328
:10B3A00092077FF5CEAD00221A601B680093009BC8
:10B3B00046F00206C5E51849D1F8046316F0010607
:10B3C0003FF4BAAD136013680093009BB4E5022903
:10B3D0007FF4F5AEC047F2E602297FF43AAFC047EA
:10B3E00037E702297FF455AEC04752E602297FF4C1
:10B3F0009BAEC04798E601297FF496AEF9E7012994
:10B400007FF4DDAEE6E701297FF443AEECE70129E6
:10B410007FF41FAFE3E700BF00600040000300506F
:10B42000014B1B68184700BF983B0020114B984206
:10B430001DD130B583B000230DF107008DF8073022
:10B440000D46FDF7A9FD0C4B1C794CB99DF8070082
:10B450001D6001221A71FDF7C5FD204603B030BD05
:10B460009DF80700FDF7BEFD112003B030BD0020A0
:10B47000704700BF00200040983B0020034B9842DB
:10B4800003D1034B00221A601A717047002000405C
:10B49000983B0020194BD3F8182102B970470021BE
:10B4A000174AC3F81811D3F81811D37F82B0FF2BB5
:10B4B000019101990DD0917F99B11F2B8ABF11483D
:10B4C0004FF0A04003F01F03012101FA03F3C0F87D
:10B4D0000C35002353771372D2E900310A4802B0C9
:10B4E00018471F2B8ABF07484FF0A04003F01F03E7
:10B4F000012101FA03F3C0F80835EAE70030024001
:10B50000A03B002000030050A83B00202DE9F04F95
:10B510000779944E07EBC70906EB890B83B0054604
:10B520009BF81C0001939246FA000092002840F01C
:10B53000EA80D5F800800C4640468B49FFF776FF3D
:10B54000002840F001814FEA8909019B46F809A0D3
:10B55000CBF80430237B2178009A012B40F2C6807F
:10B560001F2986BFDFF804C201F01F014FF0A04C75
:10B5700001238B40CCF8083523781F2B86BF03F0BE
:10B580001F037A494FF0A04103F5E0734FF0010C1F
:10B5900041F823C06378FF2B00F0CB801F2B8BBFBB
:10B5A00003F01F0E9E46DFF8C4C14FF0A04C0EF50D
:10B5B000E079012101FA0EF14FF0030ECCF80C15E1
:10B5C0004CF829E0A178FF2900F0B0801F298E46B1
:10B5D00094BF714601F01F0101F5E0718CBFDFF8E7
:10B5E0008CC14FF0A04C4FF004094CF82190A17889
:10B5F00002EB070C06EB8C0C8CF82010E1788CF831
:10B600001F10FF2928D094F804C0BCF1000F7ED190
:10B610001F298ABFDFF854C14FF0A04C01F01F0171
:10B620004FF0010909FA01F1CCF80815E1781F295A
:10B6300086BF01F01F01DFF834C14FF0A04C01F5C7
:10B64000E0714FF003094CF82190D11906EB81010C
:10B6500094F804C081F81EC02178C8F80815C8F80D
:10B660000C35C8F810E5A368C8F82435637B217B46
:10B67000003B18BF0123022970D003296BD0012998
:10B6800066D0C8F85435A379C8F8C0350723C8F880
:10B690000035BAF1000F1FD02968637941F30734F0
:10B6A000002C4FEA113147DB04F1604404F561449A
:10B6B0005B01DBB284F800332B6843F307310029C8
:10B6C0004FEA133308DB2A4D0124490903F01F0315
:10B6D00004FA03F345F82130174406EB87060022ED
:10B6E00001237277337703B0BDE8F08F1F2986BF3F
:10B6F000DFF878C001F01F014FF0A04C01238B4010
:10B70000CCF80C3538E7082003B0BDE8F08F1F29CE
:10B710008ABFDFF858904FF0A04901F01F014FF0A9
:10B72000010C0CFA01F1C9F80C157FE74FF0FF3E50
:10B730005EE74FF0FF3345E70E4C01F00F015B0170
:10B740000C44DBB22376B7E7112003B0BDE8F08FDD
:10B7500043F0020395E743F0060392E743F0040346
:10B760008FE700BFA03B002095B40200000300500B
:10B7700000E100E0FCEC00E0F8B504792A4D04EBB0
:10B78000C4029200E600AB58002B4AD0036843F392
:10B79000073100294FEA133711DB4909DFF894C05C
:10B7A0002031012307F01F0703FA07F74CF8217037
:10B7B000BFF34F8FBFF36F8FAA5803683AB13219A6
:10B7C0001A49C3F8081305EB8202527FEAB932190D
:10B7D00005EB820292F82020FF2A0BD01F2A86BF99
:10B7E00002F01F02124F4FF0A04702F5E072022153
:10B7F00047F8221000273444C3F8007505EB840491
:10B800000068FFF73BFE2777F8BD01225A61D3F8A5
:10B810000421002AFBD0321905EB82020021517766
:10B82000D5E70368D3E700BFA03B00205201080022
:10B830000003005000E100E02DE9F0470779DFF850
:10B840008CC107EBC7030CEB83068646707F82B082
:10B85000002840F0A4809B000C465CF8033015469D
:10B860004FEAC70823B112F0140F04BF0123737706
:10B8700008EB07060CEB860694E80F0096F81FA06D
:10B8800006F10C09BAF1FF0F89E80F000FD0B37F62
:10B89000002B6CD0BAF11F0F8ABF4B4A4FF0A04269
:10B8A0000AF01F0A012303FA0AF3C2F808352268D6
:10B8B00022B102F06043B3F1005F66D1A36823B107
:10B8C00003F06043B3F1005F5FD1DEF800306168E0
:10B8D000C3F84425C3F84815D4E90221C3F8342538
:10B8E0000022C3F83815C3F81821D3F818210192A3
:10B8F000019A15F0010218BF0122C3F8502515F076
:10B90000020218BF0122C3F840252A075CBF0122AA
:10B910001A6108EB07025CF8222062B115F00400FE
:10B920004FF040021ABFC3F808230020C3F80423D5
:10B9300002B0BDE8F087D3F81821002AFBD04744B5
:10B940000CEB870C9CF81F30FF2B3AD09CF81E2084
:10B950004AB31F2B8ABF1C494FF0A04103F01F03BD
:10B96000012202FA03F3C1F80C350020E0E7BAF136
:10B970001F0F8ABF144A4FF0A0420AF01F0A01238A
:10B9800003FA0AF3C2F80C3591E747440CEB870C35
:10B99000002310208CF81D3002B0BDE8F087112084
:10B9A00002B0BDE8F0871F2B8ABF07494FF0A041C6
:10B9B00003F01F03012202FA03F3C1F80835002047
:10B9C000B6E70020B4E700BF00030050A03B002012
:10B9D00030B56E4AD2F8043399058BB068D5D2F8E9
:10B9E0002431002B64D00023C2F82431D2F8243152
:10B9F00001934FF40171664B0198C2F8081393F854
:10BA0000291009B901215160604902228DF81820DE
:10BA1000D1F88024C1F880249869D968099200245B
:10BA20000025CDE90710C3E90645D3E9001206A8B1
:10BA30009047564AD2F81C31C3B1554B5869196A20
:10BA400088426AD993F8281001F0FF00002964D1D8
:10BA5000C2F81C01D2F81C11039103999C68186A62
:10BA6000196A205C01311962C2F81C05474AD2F8F4
:10BA70004431DBB10021464BC2F84411D2F84401F5
:10BA800093F829100090009809B1012111609A697A
:10BA900062B1586AD96800229A610122CDE9071083
:10BAA0008DF8182006A8D3E9001290470BB030BDDE
:10BAB000364AD2F804335B07BBD5D2F80831002BE5
:10BAC000B7D0334B996900293ED00021C2F8081144
:10BAD000D2F8081104910499D868596AD2F8182547
:10BAE00042545A6A996901325A625A6A8A42A0D10A
:10BAF000DA69002A31D0DD685C6A18699A6101212F
:10BB00000022D860DA615A628DF81810CDE9075426
:10BB1000D3E9001206A890478BE71C4A0021C2F81F
:10BB20001C11D2F81C210292029A5A69002A9DD057
:10BB300058699A688DF8181008905961079206A8FC
:10BB4000D3E90012904791E7C2F80811D2F8080132
:10BB500005900598D2F81825C7E793F8292012B95F
:10BB60000A4A01215160094A4FF40171C2F80813D1
:10BB7000596ADA6808910024012007928DF81800AC
:10BB8000D3E900129C6106A8904752E700200040CC
:10BB9000C83B00202DE9F041DFF8E48106792C2331
:10BBA00003FB068382B093F82A30002B40F09E807E
:10BBB00005460C4600686D491746FFF737FC00281C
:10BBC00040F090802368591C19D01F2B4FF00102C0
:10BBD0008ABF67494FF0A04103F01F0302FA03F345
:10BBE000C1F8083523681F2B86BF03F01F03604A86
:10BBF0004FF0A04203F5E073032142F8231063687D
:10BC00005A1C0BD01F2B86BF03F01F03584A4FF05E
:10BC1000A04203F5E073002142F823102B68A269CB
:10BC2000C3F82425217D637D2A680B43C2F86C3557
:10BC3000D4E900122B68C3F81425C3F80C15237D32
:10BC4000012B5FD02C2303FB06F308EB03025760A4
:10BC5000226948F803202A6897B30021237FC2F89D
:10BC60001C11D2F81C2100922A68009FC2F84411CE
:10BC7000D2F844112A6801913E4C0199C2F804435C
:10BC80002A6842F3073100294FEA123232DB01F110
:10BC9000604101F561415B01DBB281F800332A6844
:10BCA00042F30733002B4FEA123109DB324C0122F9
:10BCB0005B0901F01F0102FA01F144F823102A6820
:10BCC0002C2303FB0686012400230421C2F800155F
:10BCD000C6E9063386F82A4086F82930736102B037
:10BCE000BDE8F081112002B0BDE8F081082002B06B
:10BCF000BDE8F081214902F00F025B011144DBB283
:10BD00000B76CCE7A368591C0BD01F2B86BF03F022
:10BD10001F0317494FF0A04103F5E073002241F8DB
:10BD20002320E3685A1C1AD01F2B8ABF10494FF0FA
:10BD3000A04103F01F03012202FA03F3C1F8083502
:10BD4000E3681F2B88BF03F01F0303F5E0738CBF6C
:10BD500007494FF0A041032241F82320E3682A68F5
:10BD6000A168C2F80835C2F810156BE7D1B9020016
:10BD7000000300508000020000E100E0FCEC00E065
:10BD8000C83B0020F8B53E4F047902682C2303FB22
:10BD9000047300215B68C2F80015C3B10368394A17
:10BDA000C3F80823036843F30732002A4FEA13312C
:10BDB0000EDB5209344D2032012301F01F0103FA3A
:10BDC00001F145F82210BFF34F8FBFF36F8F036867
:10BDD000D3F80C65D3F81455D3F80825D3F810150B
:10BDE0004FF0FF3CC3F814C5C3F80CC503686645A3
:10BDF000C3F808C5C3F810C50CD01F2E86BF06F0C7
:10BE00001F06224B4FF0A04306F5E0764FF0020CE0
:10BE100043F826C06E1C0BD01F2D86BF05F01F05F2
:10BE20001A4B4FF0A04305F5E075022643F8256054
:10BE30004D1C0BD01F2986BF01F01F01134B4FF083
:10BE4000A04301F5E071022543F82150531C0BD0AB
:10BE50001F2A86BF02F01F020C4B4FF0A04302F5D1
:10BE6000E072022143F822100068FFF707FB2C2341
:10BE700003FB0474002384F82A306360F8BD00BF1C
:10BE8000C83B00208402020000E100E000030050F3
:10BE90002DE9F041314E05792C2303FB056304465F
:10BEA000586984B000284CD15A619960186283F8AF
:10BEB00028002268C2F81C01D2F81C1122680291E5
:10BEC0000121029F91602268D3F808C0C2F81C01CA
:10BED000D2F81C11019101991F6A196A1CF80770A8
:10BEE00001311962C2F81C755A6812B104B0BDE87C
:10BEF000F0815F691A6A216897421BD9864602E081
:10BF000093F828200ABBD1F81C21002AF8D0C1F8E8
:10BF10001CE1D1F81C210392039AD3F820801A6AFD
:10BF20001CF8088001321A62C1F81C851A6A97420F
:10BF3000E9D82168D1F81C31002BFBD00123CB605C
:10BF400004E0112004B0BDE8F0810F202C2303FB96
:10BF5000056500236B6104B0BDE8F081C83B00209B
:10BF60000379044A2C2101FB03235869003818BFC8
:10BF700001207047C83B0020F0B4504F06792C23B5
:10BF800003FB067386B05D68044625B103684FF471
:10BF90000170C3F808032C2303FB0673986990B162
:10BFA000D86900287CD11961DA612C2303FB067360
:10BFB0005A683AB323684FF40172C3F8042300208F
:10BFC00006B0F0BC704793F829509A61D960586266
:10BFD000D861002DE9D12368C3F82451D3F8242176
:10BFE00023680192019AC3F80851D3F80821236805
:10BFF0000292012202991A602C2303FB06735A68ED
:10C00000002AD7D12168C1F84421D1F844210392F4
:10C01000039A2268D2F82411D2F80851D2F84401C8
:10C0200055B9002833D10029F4D02C2303FB067620
:10C030000023B3610320C3E70029F6D148BB996907
:10C04000C2F8080181B1D2F8081104910499DD68A1
:10C05000596AD2F818256A545A6A996901325A62A3
:10C060005A6A9142D5D806E0D2F80811059105998F
:10C07000D2F818255B6A2C2303FB0676002296F87B
:10C080002930B261A3B1236801221A6098E7002920
:10C09000CBD12C2303FB06760023B3610F208FE75F
:10C0A00055B123684FF40172C3F80423112087E7C8
:10C0B000236801225A6083E7112081E7C83B0020F2
:10C0C00030B5574BD3F824218BB0002A75D000220D
:10C0D000C3F82421D3F82421049202228DF81820D9
:10C0E000049AD3F880144F4AC3F880140991D3F806
:10C0F0003C15D3680891002400250793C2E9064542
:10C100001168536806A89847454BD3F8442152B1AB
:10C110000021444AC3F84411D3F8440191690390C3
:10C120000398002938D13E4BD3F820215AB1002181
:10C13000C3F82011D3F8202102920120394A029C31
:10C14000D8605069D8B9364BD3F85821AAB100212C
:10C15000C3F85811D3F85801324A01900198506938
:10C1600058B1D3F84C05936808908DF818105161B8
:10C17000079306A8D2E9001398470BB030BDD3F857
:10C180004C05936808908DF818105161079306A824
:10C19000D2E900139847D6E7D3F83C35D168089325
:10C1A00000240025012307918DF81830C2E90645C7
:10C1B000D2E9001306A89847B5E7D3F81011002973
:10C1C000A2D0C3F81021D3F8101116480591059993
:10C1D0008469D3F83C15A14296D1C469A4B1D3F8BF
:10C1E0000052846125F02005C3F80052D0E90343D2
:10C1F000C26101220891C3600168436807948DF809
:10C20000182006A898477FE7C26884610123CDE91A
:10C2100007218DF81830D0E9001306A8984773E776
:10C2200000200040F83B00202DE9F0430779824EC2
:10C2300007EBC70306EB830387B093F82030002B8E
:10C2400040F0B98004460D4600687C499046FFF7EF
:10C25000EDF8002840F0AB802B68591C4FEAC70965
:10C2600019D01F2B4FF001028ABF75494FF0A04132
:10C2700003F01F0302FA03F3C1F808352B681F2BE4
:10C2800086BF03F01F036E4A4FF0A04203F5E07330
:10C29000032142F823106B685A1C0BD01F2B86BF5A
:10C2A00003F01F03664A4FF0A04203F5E07300213C
:10C2B00042F823102368AA69C3F82425297D6A7DE2
:10C2C00023680A43C3F86C25D5E900312268C2F817
:10C2D0000C35C2F814152B7D012B78D009EB070221
:10C2E00006EB8203C3F804802B6946F82230B8F1CC
:10C2F000000F4BD021682B7F524D0022C1F8102136
:10C30000D1F8101101912168DDF804C0C1F8202195
:10C31000D1F8201102912168DDF808C0C1F824216C
:10C32000D1F8241103912168DDF80CC0C1F8442133
:10C33000D1F8441104912168DDF810C0C1F85821EA
:10C34000D1F85811226805910599C2F80453226862
:10C3500042F3073100294FEA123230DB01F160412C
:10C3600001F561415B01DBB281F80033226842F3E1
:10C370000733002B4FEA123109DB334D01225B09F1
:10C3800001F01F0102FA01F145F8231022684F4421
:10C3900006EB8706002301240821C2F80015C6E930
:10C3A000063386F82040736107B0BDE8F0831120A2
:10C3B00007B0BDE8F083082007B0BDE8F08323494B
:10C3C00002F00F025B011144DBB20B76CEE7AB68E3
:10C3D000591C0BD01F2B86BF03F01F0318494FF0C9
:10C3E000A04103F5E073002241F82320EB685A1CBA
:10C3F0001AD01F2B8ABF12494FF0A04103F01F0330
:10C40000012202FA03F3C1F80835EB681F2B88BF3D
:10C4100003F01F0303F5E0738CBF09494FF0A041FF
:10C42000032241F82320EB682268A968C2F8083586
:10C43000C2F8101552E700BFF83B0020C1C002004F
:10C44000000300501003420000E100E0FCEC00E0BB
:10C450002DE9F0410579564C05EBC50304EB830348
:10C4600001465B68006882B0EE00C3B1514BC0F872
:10C4700008330B6843F30732002A4FEA13330EDB0D
:10C480005209DFF838C12032012703F01F0307FAF1
:10C4900003F34CF82230BFF34F8FBFF36F8F721945
:10C4A00004EB8202D0F80032926923F02003C0F836
:10C4B000003242B10023C0F84431D0F84431009337
:10C4C0000123009A43600023C0F85831D0F8583156
:10C4D00001937319012204EB8303019FC2609A69DF
:10C4E000D0F85831002BFBD01AB1D0F84431002BD2
:10C4F000F6D00023C0F800350B684FF0FF38D3F8B2
:10C500000CE5D3F814C5D3F80825D3F81075C3F893
:10C510000C85C3F814850B68C645C3F80885C3F8B5
:10C5200010850CD0BEF11F0F86BF0EF01F0E2249E2
:10C530004FF0A0410EF5E07E022341F82E30BCF111
:10C54000FF3F0CD0BCF11F0F86BF0CF01F0C1A4927
:10C550004FF0A0410CF5E07C022341F82C30791C0F
:10C560000BD01F2F86BF07F01F0713494FF0A041C4
:10C5700007F5E077022341F82730531C0BD01F2A20
:10C5800086BF02F01F020C494FF0A04102F5E07295
:10C59000022341F82230FEF771FF354404EB850495
:10C5A000002384F82030636002B0BDE8F08100BF52
:10C5B000F83B0020100342000003005000E100E0BF
:10C5C000F0B401F06044B4F1005F82B02CD1057981
:10C5D000274E05EBC50406EB840403466069EF00B3
:10C5E00000283ED16261A1601A68C2F82001D2F829
:10C5F00020C11A68CDF804C0DDF804C0C2F85801A3
:10C60000D2F8582100921A68DDF800C0D4F814C09E
:10C61000C2F84415C2F848C51A68012191606268E1
:10C6200032B102B0F0BC7047102002B0F0BC7047CD
:10C630001A6800E0C8B9D2F82011D2F858010029D0
:10C64000F8D090B90121D1601B68D3F85821002A95
:10C65000FBD07B1906EB830300225A6102B0F0BCC9
:10C660007047112002B0F0BC70470F20F1E700BF07
:10C67000F83B00200379054A03EBC30302EB830375
:10C680005869003818BF0120704700BFF83B0020F0
:10C6900001F06043B3F1005F5ED1F0B40479474D1F
:10C6A00004EBC40605EB860682B07668E30026B18B
:10C6B00007684FF4047CC7F808C3234405EB8303E1
:10C6C0009C694CBB9A61DC61D9600368C3F8104176
:10C6D000D3F8106103680196019EC3F84441D3F872
:10C6E000444103680094009CC3F83415C3F838250E
:10C6F000036801221A60047904EBC40305EB830389
:10C70000E6005B6853B303684FF40472C3F8042374
:10C71000002002B0F0BC7047DC69002C37D11961F1
:10C72000DA610368C3F81041D3F810610368019619
:10C73000019EC3F84441D3F8444103680094009C2F
:10C74000C3F83415C3F838250268D2F8003243F034
:10C750002003C2F80032CEE710207047036801E0E2
:10C76000E9B910BBD3F81021D3F84411D3F8240150
:10C77000002AF5D0344400284FF0000305EB84056F
:10C7800018BF0320994218BF0F20AB61C1E796B1D3
:10C7900003684FF40472C3F804231120B9E734444A
:10C7A00005EB84050F20AA61B3E7344405EB84054B
:10C7B0000320A961ADE71120ABE700BFF83B0020E3
:10C7C000032806D8012A06D001291BD0022908D047
:10C7D00071B107207047012911D002294FF00002E2
:10C7E000F6D10B4B00EB4000034400205A70704719
:10C7F000074B00EB4000034408469A70704700F175
:10C800000E02D2B200EB400301490020CA54704727
:10C810001C3C002010B50388102B07D0112B04D12D
:10C82000254B18680138186030B110BD224C2168C2
:10C8300011B30131216010BD01220221FFF7C0FFB9
:10C8400040B1072806D01D4B1B68002BEDD0BDE87A
:10C8500010401847072202210120FFF7B1FF08B15D
:10C860000728F0D1002108460A22FFF7A9FF002877
:10C87000DBD00728E7D1D8E701220846FFF7A0FF61
:10C8800038B1072805D00D4B1B6803B198472168C4
:10C89000CFE7072202210120FFF792FF08B1072806
:10C8A000F1D1042202210020FFF78AFF0028EED0F8
:10C8B0000728E8D1EBE700BF2C3C0020283C0020F3
:10C8C0006DDF70476EDF704774DF704776DF70474B
:10C8D00077DF70477ADF70477CDF704788DF70470B
:10C8E00089DF70478EDF70478FDF7047B1DF704799
:10C8F000FBF7D0BEF0B50388103B87B00446462B4B
:10C9000076D8DFE813F08B004700CF00E500750014
:10C9100075007500F100F500F900750075007500EF
:10C9200075007500750075002D01420175007500D8
:10C93000750075007500750075007500750075004F
:10C94000750075007500750075007500750075003F
:10C95000750075007500750075007500770075002D
:10C96000750075007500750075007500750075001F
:10C97000750075007500750075007500750075000F
:10C9800075007500750075007500810075007500F3
:10C99000750077008088974D1AF074FA964A974B85
:10C9A00097499B1ADB0804461804224640F005000C
:10C9B0000126FAF793FF002305A8A5F8F0618DF88A
:10C9C0001430FCF7E9FA4FF6FF738E4A9C4213804D
:10C9D0000AD004EB840205EB4202344482F8B861C9
:10C9E000A2F8BA3185F8A5419DF81400FCF7FAFACF
:10C9F00007B0F0BD80881321FFF768FF0028F7D04B
:10CA0000FBF748FE07B0F0BD7E4A002310881946A8
:10CA10001A46FFF76BFF0028EAD0F1E70026754FB2
:10CA2000784D8DF8146005A8FCF7B6FAA3889DF838
:10CA300014002B80C7F82862FCF7D4FA04F109022D
:10CA4000A0886E4C02211AF029FA6B4B6E49E41A49
:10CA5000E408240444F0050402462046FAF73EFFA9
:10CA600029886A4887F8F16187F8F36103F04AFC86
:10CA7000002840F0B180298808220320FFF728FF12
:10CA8000002840F0A68062492046FAF763FE288815
:10CA900040F2022305A9ADF81430FFF725FF002866
:10CAA000A6D0ADE780881AF0EDF9544BE1890291E8
:10CAB0000246514861891B1ADB08A0890190009148
:10CAC0001B0443F0050053492389FBF773FA8FE7F2
:10CAD0004A48494B5049C01AC008000440F00300BE
